:100000000C9463000C948B000C948B000C948B006C
:100010000C948B000C948B000C948B000C948B0034
:100020000C948B000C948B000C948B000C94DD01D1
:100030000C948B000C948B000C948B000C948B0014
:100040000C9476030C948B000C948F040C948B000E
:100050000C948B000C948B000C948B000C948B00F4
:100060000C948B000C948B000000000024002700EF
:100070002A0000000000250028002B0000000000DE
:1000800023002600290004040404040404040202DA
:100090000202020203030303030301020408102007
:1000A0004080010204081020010204081020000012
:1000B0000007000201000003040600000000000029
:1000C00000008B02140611241FBECFEFD4E0DEBF68
:1000D000CDBF11E0A0E0B1E0EAECFEE002C0059087
:1000E0000D92A231B107D9F711E0A2E1B1E001C050
:1000F0001D92A83FB107E1F710E0C6ECD0E004C0C4
:100100002297FE010E945F07C23CD107C9F70E94F7
:100110006F030C9463070C940000FC0180911301A1
:100120008C3028F480838F5F8093130108958FEFC4
:10013000808308959F92AF92BF92CF92DF92EF9209
:10014000FF920F931F93FC0190808BE0891508F4B8
:1001500082C0292D30E0683C710508F040C000D015
:1001600000D080E090E0F901EE0FFF1FEE0FFF1FBF
:10017000E20FF31FEC5EFE4F2381332727FD3095FE
:1001800048E8A42EB12CA21AB30AAA0CBB1CAA0CD4
:10019000BB1CCC24DD24E481FF27E7FDF09528E596
:1001A00032E02E1B3F0B220F331F220F331F40E084
:1001B00050E0EDB7FEB7218332834383548320E0C0
:1001C00030E040E050E014EBE12EF12C012D112D38
:1001D0000E9485060F900F900F900F9028C0F90194
:1001E000EE0FFF1FEE0FFF1FE20FF31FEC5EFE4F3F
:1001F0008381992787FD909528E830E0281B390BEB
:10020000220F331F220F331F6217730778F0848188
:10021000992787FD909528E532E0281B390B220F9E
:10022000331F220F331F2617370708F4B901665012
:1002300070482FB7F894892D90E0FC01EE0FFF1F56
:10024000EE0FFF1FE80FF91FEC5EFE4F660F771FE2
:10025000728361832FBF1F910F91FF90EF90DF900A
:10026000CF90BF90AF909F900895CF92DF92EF9282
:10027000FF921F93CF93DF93EC01162F7A01690150
:1002800088818C3008F089C0862F61E00E942204AA
:10029000888190E0FC01EE0FFF1FEE0FFF1FE80FBB
:1002A000F91FEC5EFE4F1F738081807C812B808361
:1002B000888190E0FC01EE0FFF1FEE0FFF1FE80F9B
:1002C000F91FEC5EFE4F808180648083888190E01E
:1002D000FC01EE0FFF1FEE0FFF1FE80FF91FEC5E92
:1002E000FE4F80E292E08E199F0964E070E00E9468
:1002F000F9066383888190E0FC01EE0FFF1FEE0F8B
:10030000FF1FE80FF91FEC5EFE4F80E699E08C19A5
:100310009D0964E070E00E94F906648388816CE0C6
:100320000E94ED06582F40911201282F30E0842FB3
:1003300090E0052E02C0959587950A94E2F780FD1E
:100340002CC08CE390E0289FF001299FF00D389F8E
:10035000F00D1124EB5EFE4F80E068EB7BE07183D3
:1003600060838F5F35968C30D1F7552361F41092FE
:10037000800082E0809381001092850010928400BA
:1003800086BB80936F0081E090E002C0880F991FC8
:100390002A95E2F7482B409312018881DF91CF9193
:1003A0001F91FF90EF90DF90CF90089540E252E0D0
:1003B00020E639E00E94350108951F920F920FB692
:1003C0000F9211242F933F934F935F936F937F93DB
:1003D0008F939F93AF93BF93EF93FF9380915001BF
:1003E00087FF05C0109285001092840024C0809180
:1003F0005001992787FD9095FC01EE0FFF1FEE0F2E
:10040000FF1FE80FF91FEC5EFE4F808186FF13C0CF
:1004100080915001992787FD9095FC01EE0FFF1FF9
:10042000EE0FFF1FE80FF91FEC5EFE4F80818F7308
:1004300060E00E944204809150018F5F80935001E0
:10044000809150018C300CF03FC02091840030919D
:10045000850080915001992787FD9095FC01EE0F52
:10046000FF1FEE0FFF1FE80FF91FEC5EFE4F8181AB
:100470009281280F391F3093890020938800809142
:100480005001992787FD9095FC01EE0FFF1FEE0F9D
:10049000FF1FE80FF91FEC5EFE4F808186FF2AC028
:1004A00080915001992787FD9095FC01EE0FFF1F69
:1004B000EE0FFF1FE80FF91FEC5EFE4F80818F7378
:1004C00061E00E94420416C08091840090918500F2
:1004D00084549C4918F480E49CE905C08091840010
:1004E00090918500049690938900809388008FEF07
:1004F00080935001FF91EF91BF91AF919F918F91A8
:100500007F916F915F914F913F912F910F900FBE0F
:100510000F901F90189586E591E00E948D0087E569
:1005200091E00E948D00089585EE91E00E94C5053E
:10053000882331F085EE91E00E94D9058093510126
:1005400080915101863449F48091000161E00E945C
:1005500042048091020160E029C0823449F4809114
:10056000000160E00E9442048091020161E00AC043
:100570008C3491F48091000161E00E9442048091EA
:10058000020160E00E9442048091040160E00E9448
:100590004204809106015AC0823599F4809100018D
:1005A00060E00E9442048091020161E00E944204E6
:1005B0008091040161E00E9442048091060160E0A4
:1005C00046C0833571F48091000160E00E944204CE
:1005D0008091020160E00E9442048091040160E089
:1005E000EACF813549F48091520190915301843BC7
:1005F00091057CF503960AC0873569F48091520114
:10060000909153011816190624F5039790935301FE
:10061000809352011EC0813449F48091540190911D
:100620005501843B9105ACF405960AC0843469F405
:1006300080915401909155011816190654F40597AC
:10064000909355018093540104C08DE061E00E94B5
:100650004204609152017091530186E591E00E943D
:100660009A00609154017091550187E591E00E94D4
:100670009A0062E370E080E090E00E94BE0308957B
:1006800085EE91E040E051EE60E070E00E94CC0425
:100690008091000161E00E9422048091020161E0EA
:1006A0000E9422048091040161E00E942204809152
:1006B000060161E00E94220486E591E069E070E0B5
:1006C0000E94D60187E591E062E070E00E94D601C9
:1006D00064EF71E080E090E00E94BE0308950E9404
:1006E000E8030E9440030E949402FDCF1F920F92E4
:1006F0000FB60F9211242F933F938F939F93AF9335
:10070000BF9380915C0190915D01A0915E01B091D9
:100710005F01309160010196A11DB11D232F2D5F56
:100720002D3720F02D570196A11DB11D209360019A
:1007300080935C0190935D01A0935E01B0935F0193
:100740008091580190915901A0915A01B0915B019B
:100750000196A11DB11D8093580190935901A0935A
:100760005A01B0935B01BF91AF919F918F913F91DF
:100770002F910F900FBE0F901F901895EF92FF9240
:100780000F931F937B018C018FB7F89440915C010C
:1007900050915D0160915E0170915F018FBF2FB735
:1007A000F89480915C0190915D01A0915E01B091FF
:1007B0005F012FBF841B950BA60BB70BE816F9063C
:1007C0000A071B0760F71F910F91FF90EF900895A4
:1007D000789484B5826084BD84B5816084BD85B51C
:1007E000826085BD85B5816085BDEEE6F0E08081E3
:1007F00081608083E1E8F0E0808182608083808195
:1008000081608083E0E8F0E0808181608083E1EBBB
:10081000F0E0808184608083E0EBF0E080818160A3
:100820008083EAE7F0E08081846080838081826059
:100830008083808181608083808180688083109242
:10084000C1000895282F30E0C90186569F4FFC0152
:1008500094912A573F4FF9018491882391F0E82F12
:10086000F0E0EE0FFF1FE859FF4FA591B49166230A
:1008700029F48C91909589238C9308958C91892BE0
:100880008C930895482F50E0CA0182559F4FFC0178
:100890002491CA0186569F4FFC0194914A575F4F9D
:1008A000FA0134913323D1F1222331F1233021F4A1
:1008B000809180008F7705C0243031F480918000D2
:1008C0008F7D8093800018C0213019F484B58F7714
:1008D00004C0223021F484B58F7D84BD0DC0263044
:1008E00021F48091B0008F7705C0273029F48091E2
:1008F000B0008F7D8093B000E32FF0E0EE0FFF1F7C
:10090000EE58FF4FA591B491662329F48C919095F0
:1009100089238C9308958C91892B8C9308951F9231
:100920000F920FB60F9211242F933F934F935F9323
:100930006F937F938F939F93AF93BF93EF93FF93A7
:100940004091C600E091E101F091E201CF010196F2
:1009500060E870E00E94F9069C018091E3019091AB
:10096000E4012817390739F0EF59FE4F40833093DF
:10097000E2012093E101FF91EF91BF91AF919F912F
:100980008F917F916F915F914F913F912F910F9038
:100990000FBE0F901F9018955F926F927F928F926B
:1009A0009F92AF92BF92CF92DF92EF92FF920F93FE
:1009B0001F93CF93DF93EC013A014B01413482E462
:1009C00058078FE0680780E078070CF07FC060E888
:1009D00074E88EE190E0A40193010E942E0721505B
:1009E000304040405040CA01B90122E030E040E0D0
:1009F00050E00E942E0759016A01A6019501209539
:100A000030954095509594E0220F331F441F551F99
:100A10009A95D1F760E074E284EF90E00E942E078F
:100A2000CA01B9012FEF30E040E050E00E94CE064D
:100A3000A40193010E942E07C90181509F4F1816EF
:100A400019061CF4522E5A9403C055245394521A7A
:100A500060E079E08DE390E0A40193010E942E070D
:100A60002150304040405040CA01B90122E030E0FE
:100A700040E050E00E942E0720953095409550951B
:100A800083E0220F331F441F551F8A95D1F760E082
:100A900074E284EF90E00E942E07CA01B9012FEFA3
:100AA00030E040E050E00E94CE06A40193010E9495
:100AB0002E07C90181509F4F181619061CF4822F6A
:100AC000815002C081E0821B851500F5E885F9851B
:100AD00081E090E00A8802C0880F991F0A94E2F72B
:100AE000808360E079E08DE390E0A40193010E94AF
:100AF0002E072150304040405040CA01B90122E049
:100B000030E040E050E00E942E0704C0E885F985FF
:100B100010829501EC81FD813083EE81FF8120837D
:100B2000EA85FB85208141E050E0CA010E8402C0C5
:100B3000880F991F0A94E2F7282B2083EA85FB850A
:100B40002081CA010F8402C0880F991F0A94E2F71E
:100B5000282B2083EA85FB858081088802C0440F0A
:100B6000551F0A94E2F7842B8083DF91CF911F9168
:100B70000F91FF90EF90DF90CF90BF90AF909F903C
:100B80008F907F906F905F900895DC011296ED91A9
:100B9000FC911397E058FF4F8191919180589F4F9E
:100BA00020813181821B930B60E870E00E94F9067E
:100BB0000895CF93DF93DC011296ED91FC9113978A
:100BC000EF01CE57DF4F48815981E058FF4F8081B8
:100BD0009181E058F0408417950719F42FEF3FEF0B
:100BE0000CC0E40FF51F2081CA01019660E870E097
:100BF0000E94F9069983888330E0C901DF91CF9183
:100C00000895FC01A085B18521898C9190E0022E88
:100C100002C0959587950A94E2F780FFF6CF048489
:100C2000F585E02D608308958CE091E09093E601D6
:100C30008093E50181E691E09093E8018093E701DC
:100C400085EC90E09093EA018093E90184EC90E0D8
:100C50009093EC018093EB0180EC90E09093EE0197
:100C60008093ED0181EC90E09093F0018093EF018F
:100C700086EC90E09093F2018093F10184E0809300
:100C8000F30183E08093F40187E08093F50185E030
:100C90008093F60181E08093F70108950F931F93ED
:100CA000CF93DF938C01EB0109C02196D801ED9120
:100CB000FC910190F081E02DC801099568816623BF
:100CC000A1F7DF91CF911F910F910895EF92FF92BD
:100CD0000F931F93CF93DF938C017B01EA010CC02C
:100CE000D7016D917D01D801ED91FC910190F081CA
:100CF000E02DC80109952197209791F7DF91CF91B9
:100D00001F910F91FF90EF9008952F923F924F9275
:100D10005F926F927F928F929F92AF92BF92CF928B
:100D2000DF92EF92FF920F931F93DF93CF93CDB794
:100D3000DEB73B014C0119012A016D897E898F893B
:100D4000988D6A197B098C099D09621A730A840AB5
:100D5000950AA40193010E94CE06E218F308040943
:100D60001509A80197010E942E072A0D3B1D4C1D55
:100D70005D1DB901CA01CF91DF911F910F91FF90C5
:100D8000EF90DF90CF90BF90AF909F908F907F902B
:100D90006F905F904F903F902F900895629FD00189
:100DA000739FF001829FE00DF11D649FE00DF11D26
:100DB000929FF00D839FF00D749FF00D659FF00DD5
:100DC0009927729FB00DE11DF91F639FB00DE11DC2
:100DD000F91FBD01CF0111240895991B79E004C0CA
:100DE000991F961708F0961B881F7A95C9F780956A
:100DF000089597FB092E07260AD077FD04D049D025
:100E000006D000201AF4709561957F4F0895F6F78B
:100E1000909581959F4F0895A1E21A2EAA1BBB1BA6
:100E2000FD010DC0AA1FBB1FEE1FFF1FA217B307B6
:100E3000E407F50720F0A21BB30BE40BF50B661FCC
:100E4000771F881F991F1A9469F760957095809590
:100E500090959B01AC01BD01CF01089597FB092E30
:100E600005260ED057FD04D0D7DF0AD0001C38F479
:100E700050954095309521953F4F4F4F5F4F0895C6
:100E8000F6F790958095709561957F4F8F4F9F4FA6
:100E90000895AA1BBB1B51E107C0AA1FBB1FA617C1
:100EA000B70710F0A61BB70B881F991F5A95A9F713
:100EB00080959095BC01CD010895EE0FFF1F059020
:0A0EC000F491E02D0994F894FFCF9F
:100ECA0003000400060007000000000001064E06A9
:020EDA006606AA
:00000001FF
